{
  "_format": "hh-sol-artifact-1",
  "contractName": "BNBTyphoon",
  "sourceName": "contracts/BNBTyphoon.sol",
  "abi": [
    {
      "anonymous": false,
      "inputs": [
        {
          "indexed": true,
          "internalType": "bytes32",
          "name": "commitment",
          "type": "bytes32"
        },
        {
          "indexed": false,
          "internalType": "uint32",
          "name": "leafIndex",
          "type": "uint32"
        },
        {
          "indexed": false,
          "internalType": "uint256",
          "name": "timestamp",
          "type": "uint256"
        }
      ],
      "name": "Deposit",
      "type": "event"
    },
    {
      "anonymous": false,
      "inputs": [
        {
          "indexed": false,
          "internalType": "address",
          "name": "to",
          "type": "address"
        },
        {
          "indexed": false,
          "internalType": "bytes32",
          "name": "nullifierHash",
          "type": "bytes32"
        },
        {
          "indexed": true,
          "internalType": "address",
          "name": "relayer",
          "type": "address"
        },
        {
          "indexed": false,
          "internalType": "uint256",
          "name": "fee",
          "type": "uint256"
        }
      ],
      "name": "Withdrawal",
      "type": "event"
    },
    {
      "inputs": [],
      "name": "FIELD_SIZE",
      "outputs": [
        {
          "internalType": "uint256",
          "name": "",
          "type": "uint256"
        }
      ],
      "stateMutability": "view",
      "type": "function"
    },
    {
      "inputs": [],
      "name": "ROOT_HISTORY_SIZE",
      "outputs": [
        {
          "internalType": "uint32",
          "name": "",
          "type": "uint32"
        }
      ],
      "stateMutability": "view",
      "type": "function"
    },
    {
      "inputs": [],
      "name": "ZERO_VALUE",
      "outputs": [
        {
          "internalType": "uint256",
          "name": "",
          "type": "uint256"
        }
      ],
      "stateMutability": "view",
      "type": "function"
    },
    {
      "inputs": [
        {
          "internalType": "uint256",
          "name": "_newFee",
          "type": "uint256"
        }
      ],
      "name": "changeFee",
      "outputs": [],
      "stateMutability": "nonpayable",
      "type": "function"
    },
    {
      "inputs": [
        {
          "internalType": "address",
          "name": "_newOperator",
          "type": "address"
        }
      ],
      "name": "changeOperator",
      "outputs": [],
      "stateMutability": "nonpayable",
      "type": "function"
    },
    {
      "inputs": [
        {
          "internalType": "bytes32",
          "name": "",
          "type": "bytes32"
        }
      ],
      "name": "commitments",
      "outputs": [
        {
          "internalType": "bool",
          "name": "",
          "type": "bool"
        }
      ],
      "stateMutability": "view",
      "type": "function"
    },
    {
      "inputs": [],
      "name": "currentRootIndex",
      "outputs": [
        {
          "internalType": "uint32",
          "name": "",
          "type": "uint32"
        }
      ],
      "stateMutability": "view",
      "type": "function"
    },
    {
      "inputs": [],
      "name": "denomination",
      "outputs": [
        {
          "internalType": "uint256",
          "name": "",
          "type": "uint256"
        }
      ],
      "stateMutability": "view",
      "type": "function"
    },
    {
      "inputs": [
        {
          "internalType": "bytes32",
          "name": "_commitment",
          "type": "bytes32"
        }
      ],
      "name": "deposit",
      "outputs": [],
      "stateMutability": "payable",
      "type": "function"
    },
    {
      "inputs": [],
      "name": "fee",
      "outputs": [
        {
          "internalType": "uint256",
          "name": "",
          "type": "uint256"
        }
      ],
      "stateMutability": "view",
      "type": "function"
    },
    {
      "inputs": [
        {
          "internalType": "uint256",
          "name": "",
          "type": "uint256"
        }
      ],
      "name": "filledSubtrees",
      "outputs": [
        {
          "internalType": "bytes32",
          "name": "",
          "type": "bytes32"
        }
      ],
      "stateMutability": "view",
      "type": "function"
    },
    {
      "inputs": [],
      "name": "getLastRoot",
      "outputs": [
        {
          "internalType": "bytes32",
          "name": "",
          "type": "bytes32"
        }
      ],
      "stateMutability": "view",
      "type": "function"
    },
    {
      "inputs": [
        {
          "internalType": "bytes32",
          "name": "_left",
          "type": "bytes32"
        },
        {
          "internalType": "bytes32",
          "name": "_right",
          "type": "bytes32"
        }
      ],
      "name": "hashLeftRight",
      "outputs": [
        {
          "internalType": "bytes32",
          "name": "",
          "type": "bytes32"
        }
      ],
      "stateMutability": "pure",
      "type": "function"
    },
    {
      "inputs": [
        {
          "internalType": "contract IVerifier",
          "name": "_verifier",
          "type": "address"
        },
        {
          "internalType": "uint256",
          "name": "_denomination",
          "type": "uint256"
        },
        {
          "internalType": "uint32",
          "name": "_merkleTreeHeight",
          "type": "uint32"
        },
        {
          "internalType": "address",
          "name": "_operator",
          "type": "address"
        }
      ],
      "name": "initialize",
      "outputs": [],
      "stateMutability": "nonpayable",
      "type": "function"
    },
    {
      "inputs": [
        {
          "internalType": "uint32",
          "name": "_treeLevels",
          "type": "uint32"
        }
      ],
      "name": "initialize",
      "outputs": [],
      "stateMutability": "nonpayable",
      "type": "function"
    },
    {
      "inputs": [
        {
          "internalType": "bytes32",
          "name": "_root",
          "type": "bytes32"
        }
      ],
      "name": "isKnownRoot",
      "outputs": [
        {
          "internalType": "bool",
          "name": "",
          "type": "bool"
        }
      ],
      "stateMutability": "view",
      "type": "function"
    },
    {
      "inputs": [
        {
          "internalType": "bytes32",
          "name": "_nullifierHash",
          "type": "bytes32"
        }
      ],
      "name": "isSpent",
      "outputs": [
        {
          "internalType": "bool",
          "name": "",
          "type": "bool"
        }
      ],
      "stateMutability": "view",
      "type": "function"
    },
    {
      "inputs": [
        {
          "internalType": "bytes32[]",
          "name": "_nullifierHashes",
          "type": "bytes32[]"
        }
      ],
      "name": "isSpentArray",
      "outputs": [
        {
          "internalType": "bool[]",
          "name": "spent",
          "type": "bool[]"
        }
      ],
      "stateMutability": "view",
      "type": "function"
    },
    {
      "inputs": [],
      "name": "levels",
      "outputs": [
        {
          "internalType": "uint32",
          "name": "",
          "type": "uint32"
        }
      ],
      "stateMutability": "view",
      "type": "function"
    },
    {
      "inputs": [],
      "name": "nextIndex",
      "outputs": [
        {
          "internalType": "uint32",
          "name": "",
          "type": "uint32"
        }
      ],
      "stateMutability": "view",
      "type": "function"
    },
    {
      "inputs": [
        {
          "internalType": "bytes32",
          "name": "",
          "type": "bytes32"
        }
      ],
      "name": "nullifierHashes",
      "outputs": [
        {
          "internalType": "bool",
          "name": "",
          "type": "bool"
        }
      ],
      "stateMutability": "view",
      "type": "function"
    },
    {
      "inputs": [],
      "name": "operator",
      "outputs": [
        {
          "internalType": "address",
          "name": "",
          "type": "address"
        }
      ],
      "stateMutability": "view",
      "type": "function"
    },
    {
      "inputs": [
        {
          "internalType": "uint256",
          "name": "",
          "type": "uint256"
        }
      ],
      "name": "roots",
      "outputs": [
        {
          "internalType": "bytes32",
          "name": "",
          "type": "bytes32"
        }
      ],
      "stateMutability": "view",
      "type": "function"
    },
    {
      "inputs": [
        {
          "internalType": "address",
          "name": "_newVerifier",
          "type": "address"
        }
      ],
      "name": "updateVerifier",
      "outputs": [],
      "stateMutability": "nonpayable",
      "type": "function"
    },
    {
      "inputs": [],
      "name": "verifier",
      "outputs": [
        {
          "internalType": "contract IVerifier",
          "name": "",
          "type": "address"
        }
      ],
      "stateMutability": "view",
      "type": "function"
    },
    {
      "inputs": [
        {
          "internalType": "bytes",
          "name": "_proof",
          "type": "bytes"
        },
        {
          "internalType": "bytes32",
          "name": "_root",
          "type": "bytes32"
        },
        {
          "internalType": "bytes32",
          "name": "_nullifierHash",
          "type": "bytes32"
        },
        {
          "internalType": "address payable",
          "name": "_recipient",
          "type": "address"
        },
        {
          "internalType": "address payable",
          "name": "_relayer",
          "type": "address"
        },
        {
          "internalType": "uint256",
          "name": "_fee",
          "type": "uint256"
        },
        {
          "internalType": "uint256",
          "name": "_refund",
          "type": "uint256"
        }
      ],
      "name": "withdraw",
      "outputs": [],
      "stateMutability": "payable",
      "type": "function"
    },
    {
      "inputs": [
        {
          "internalType": "uint256",
          "name": "",
          "type": "uint256"
        }
      ],
      "name": "zeros",
      "outputs": [
        {
          "internalType": "bytes32",
          "name": "",
          "type": "bytes32"
        }
      ],
      "stateMutability": "view",
      "type": "function"
    }
  ],
  "bytecode": "0x608060405234801561001057600080fd5b50611c75806100206000396000f3fe60806040526004361061019c5760003560e01c80638d8965bd116100ec578063cd87a3b41161008a578063e829558811610064578063e82955881461064b578063ec73295914610675578063f178e47c1461068a578063fc7e9c6f146106b45761019c565b8063cd87a3b4146105f7578063ddca3f431461060c578063e5285dcc146106215761019c565b80639fa12d0b116100c65780639fa12d0b146104d0578063b214faa51461059b578063ba70f757146105b8578063c2b40ae4146105cd5761019c565b80638d8965bd1461045857806390eeb02b1461048857806397fc007c1461049d5761019c565b8063414a37ba116101595780636a1db1bf116101335780636a1db1bf146103c55780636d9833e3146103ef578063839df945146104195780638bca6d16146104435761019c565b8063414a37ba1461036d5780634ecf518b14610382578063570ca735146103b05761019c565b806306394c9b146101a157806317cc915c146101d657806321a0adb6146102145780632b7ac3f3146102ad57806338bf282e146102de5780634111a91914610320575b600080fd5b3480156101ad57600080fd5b506101d4600480360360208110156101c457600080fd5b50356001600160a01b03166106c9565b005b3480156101e257600080fd5b50610200600480360360208110156101f957600080fd5b5035610734565b604080519115158252519081900360200190f35b6101d4600480360360e081101561022a57600080fd5b810190602081018135600160201b81111561024457600080fd5b82018360208201111561025657600080fd5b803590602001918460018302840111600160201b8311171561027757600080fd5b91935091508035906020810135906001600160a01b03604082013581169160608101359091169060808101359060a00135610749565b3480156102b957600080fd5b506102c2610a28565b604080516001600160a01b039092168252519081900360200190f35b3480156102ea57600080fd5b5061030e6004803603604081101561030157600080fd5b5080359060200135610a37565b60408051918252519081900360200190f35b34801561032c57600080fd5b506101d46004803603608081101561034357600080fd5b506001600160a01b03813581169160208101359163ffffffff604083013516916060013516610c1a565b34801561037957600080fd5b5061030e610ccc565b34801561038e57600080fd5b50610397610cde565b6040805163ffffffff9092168252519081900360200190f35b3480156103bc57600080fd5b506102c2610cf0565b3480156103d157600080fd5b506101d4600480360360208110156103e857600080fd5b5035610cff565b3480156103fb57600080fd5b506102006004803603602081101561041257600080fd5b5035610d4d565b34801561042557600080fd5b506102006004803603602081101561043c57600080fd5b5035610dc0565b34801561044f57600080fd5b5061030e610dd5565b34801561046457600080fd5b506101d46004803603602081101561047b57600080fd5b503563ffffffff16610ddb565b34801561049457600080fd5b5061039761105a565b3480156104a957600080fd5b506101d4600480360360208110156104c057600080fd5b50356001600160a01b0316611066565b3480156104dc57600080fd5b5061054b600480360360208110156104f357600080fd5b810190602081018135600160201b81111561050d57600080fd5b82018360208201111561051f57600080fd5b803590602001918460208302840111600160201b8311171561054057600080fd5b5090925090506110d1565b60408051602080825283518183015283519192839290830191858101910280838360005b8381101561058757818101518382015260200161056f565b505050509050019250505060405180910390f35b6101d4600480360360208110156105b157600080fd5b5035611159565b3480156105c457600080fd5b5061030e611218565b3480156105d957600080fd5b5061030e600480360360208110156105f057600080fd5b5035611238565b34801561060357600080fd5b5061039761124c565b34801561061857600080fd5b5061030e611251565b34801561062d57600080fd5b506102006004803603602081101561064457600080fd5b5035611257565b34801561065757600080fd5b5061030e6004803603602081101561066e57600080fd5b503561126c565b34801561068157600080fd5b5061030e61128a565b34801561069657600080fd5b5061030e600480360360208110156106ad57600080fd5b50356112ae565b3480156106c057600080fd5b506103976112bb565b606d546001600160a01b031633146107125760405162461bcd60e51b8152600401808060200182810382526025815260200180611c1b6025913960400191505060405180910390fd5b606d80546001600160a01b0319166001600160a01b0392909216919091179055565b606a6020526000908152604090205460ff1681565b6068548211156107a0576040805162461bcd60e51b815260206004820152601a60248201527f4665652065786365656473207472616e736665722076616c7565000000000000604482015290519081900360640190fd5b6000858152606a602052604090205460ff1615610804576040805162461bcd60e51b815260206004820152601f60248201527f546865206e6f746520686173206265656e20616c7265616479207370656e7400604482015290519081900360640190fd5b61080d86610d4d565b61085e576040805162461bcd60e51b815260206004820152601c60248201527f43616e6e6f742066696e6420796f7572206d65726b6c6520726f6f7400000000604482015290519081900360640190fd5b606c546040805160c08082018352898252602082018990526001600160a01b038881168385015287811660608401526080830187905260a08301869052925163695ef6f960e01b8152929093169263695ef6f9928c928c9290916004810191829160240190849080838360005b838110156108e35781810151838201526020016108cb565b505050509050018281038252858582818152602001925080828437600081840152601f19601f820116905080830192505050945050505050602060405180830381600087803b15801561093557600080fd5b505af1158015610949573d6000803e3d6000fd5b505050506040513d602081101561095f57600080fd5b50516109ab576040805162461bcd60e51b815260206004820152601660248201527524b73b30b634b2103bb4ba34323930bb90383937b7b360511b604482015290519081900360640190fd5b6000858152606a60205260409020805460ff191660011790556109d0848484846112ce565b604080516001600160a01b038681168252602082018890528183018590529151918516917fe9e508bad6d4c3227e881ca19068f099da81b5164dd6d62b2eaf1e8bc6c349319181900360600190a25050505050505050565b606c546001600160a01b031681565b6000600080516020611b1a8339815191528310610a9b576040805162461bcd60e51b815260206004820181905260248201527f5f6c6566742073686f756c6420626520696e7369646520746865206669656c64604482015290519081900360640190fd5b600080516020611b1a8339815191528210610ae75760405162461bcd60e51b8152600401808060200182810382526021815260200180611aa46021913960400191505060405180910390fd5b6040805163f47d33b560e01b81526004810185905260006024820181905282518693919273__$9780738a116369df5fe6eb1df74865bc0a$__9263f47d33b592604480840193829003018186803b158015610b4157600080fd5b505af4158015610b55573d6000803e3d6000fd5b505050506040513d6040811015610b6b57600080fd5b5080516020909101519092509050600080516020611b1a833981519152848308915073__$9780738a116369df5fe6eb1df74865bc0a$__63f47d33b583836040518363ffffffff1660e01b81526004018083815260200182815260200192505050604080518083038186803b158015610be357600080fd5b505af4158015610bf7573d6000803e3d6000fd5b505050506040513d6040811015610c0d57600080fd5b5051925050505b92915050565b600054610100900460ff1680610c335750610c3361152e565b80610c41575060005460ff16155b610c7c5760405162461bcd60e51b815260040180806020018281038252602e815260200180611aec602e913960400191505060405180910390fd5b600054610100900460ff16158015610ca7576000805460ff1961ff0019909116610100171660011790555b610cb38585858561153f565b8015610cc5576000805461ff00191690555b5050505050565b600080516020611b1a83398151915281565b60005462010000900463ffffffff1681565b606d546001600160a01b031681565b606d546001600160a01b03163314610d485760405162461bcd60e51b8152600401808060200182810382526025815260200180611c1b6025913960400191505060405180910390fd5b606955565b600081610d5c57506000610dbb565b60035463ffffffff165b60048163ffffffff1660648110610d7957fe5b0154831415610d8c576001915050610dbb565b63ffffffff8116610d9b575060645b6003546000199091019063ffffffff80831691161415610d665760009150505b919050565b606b6020526000908152604090205460ff1681565b60685481565b600054610100900460ff1680610df45750610df461152e565b80610e02575060005460ff16155b610e3d5760405162461bcd60e51b815260040180806020018281038252602e815260200180611aec602e913960400191505060405180910390fd5b600054610100900460ff16158015610e68576000805460ff1961ff0019909116610100171660011790555b60008263ffffffff1611610ead5760405162461bcd60e51b8152600401808060200182810382526027815260200180611ac56027913960400191505060405180910390fd5b60208263ffffffff1610610ef25760405162461bcd60e51b8152600401808060200182810382526022815260200180611b5b6022913960400191505060405180910390fd5b6000805465ffffffff000019166201000063ffffffff8516021781556003805467ffffffffffffffff191690556002805460018181019092557f2fe54c60d3acabf3343a35b6eba15db4821b340f76e741e2249685ed4899af6c7f405787fa12a823e0f2b7631cc41b3ba8828b3321ca811111fa75cd3aa3bb5ace90910181905581548083018355928290527fb10e2d527612073b26eecdfd717e6a320cf44b4afac2b0732d9fcbe2b7fa0cf69092018290555b60005463ffffffff620100009091048116908216101561103557610fca8283610a37565b6002805460018181019092557f405787fa12a823e0f2b7631cc41b3ba8828b3321ca811111fa75cd3aa3bb5ace018290558054808201825560008290527fb10e2d527612073b26eecdfd717e6a320cf44b4afac2b0732d9fcbe2b7fa0cf60182905590925001610fa6565b506110408182610a37565b600455508015611056576000805461ff00191690555b5050565b60035463ffffffff1681565b606d546001600160a01b031633146110af5760405162461bcd60e51b8152600401808060200182810382526025815260200180611c1b6025913960400191505060405180910390fd5b606c80546001600160a01b0319166001600160a01b0392909216919091179055565b6040805182815260208084028201019091526060908280156110fd578160200160208202803883390190505b50905060005b828110156111525761112684848381811061111a57fe5b90506020020135611257565b1561114a57600182828151811061113957fe5b911515602092830291909101909101525b600101611103565b5092915050565b6000818152606b602052604090205460ff16156111a75760405162461bcd60e51b8152600401808060200182810382526021815260200180611b7d6021913960400191505060405180910390fd5b60006111b282611666565b6000838152606b60205260409020805460ff1916600117905590506111d5611809565b6040805163ffffffff83168152426020820152815184927fa945e51eec50ab98c161376f0db4cf2aeba3ec92755fe2fcd388bdbbb80ff196928290030190a25050565b60035460009060049063ffffffff166064811061123157fe5b0154905090565b6004816064811061124557fe5b0154905081565b606481565b60695481565b6000908152606a602052604090205460ff1690565b6002818154811061127957fe5b600091825260209091200154905081565b7f2fe54c60d3acabf3343a35b6eba15db4821b340f76e741e2249685ed4899af6c81565b6001818154811061127957fe5b600354600160201b900463ffffffff1681565b341561130b5760405162461bcd60e51b8152600401808060200182810382526035815260200180611b9e6035913960400191505060405180910390fd5b80156113485760405162461bcd60e51b8152600401808060200182810382526034815260200180611a4d6034913960400191505060405180910390fd5b600061135560685461184b565b6068546040519192506000916001600160a01b03881691869003849003908381818185875af1925050503d80600081146113ab576040519150601f19603f3d011682016040523d82523d6000602084013e6113b0565b606091505b50509050806113f05760405162461bcd60e51b8152600401808060200182810382526025815260200180611bd36025913960400191505060405180910390fd5b8315611486576040516001600160a01b038616908590600081818185875af1925050503d806000811461143f576040519150601f19603f3d011682016040523d82523d6000602084013e611444565b606091505b505080915050806114865760405162461bcd60e51b8152600401808060200182810382526023815260200180611bf86023913960400191505060405180910390fd5b8115611526576114946118e4565b6040516001600160a01b0391909116908390600081818185875af1925050503d80600081146114df576040519150601f19603f3d011682016040523d82523d6000602084013e6114e4565b606091505b505080915050806115265760405162461bcd60e51b8152600401808060200182810382526023815260200180611a816023913960400191505060405180910390fd5b505050505050565b6000611539306118f3565b15905090565b600054610100900460ff1680611558575061155861152e565b80611566575060005460ff16155b6115a15760405162461bcd60e51b815260040180806020018281038252602e815260200180611aec602e913960400191505060405180910390fd5b600054610100900460ff161580156115cc576000805460ff1961ff0019909116610100171660011790555b6115d583610ddb565b600084116116145760405162461bcd60e51b81526004018080602001828103825260258152602001806119c16025913960400191505060405180910390fd5b606c80546001600160a01b038088166001600160a01b031992831617909255606d805492851692909116919091179055606884905560056069558015610cc5576000805461ff00191690555050505050565b60035460008054909163ffffffff600160201b909104811691620100009004811660020a168114156116c95760405162461bcd60e51b815260040180806020018281038252602f815260200180611a1e602f913960400191505060405180910390fd5b6003805463ffffffff600160201b80830482166001019091160267ffffffff000000001990911617905582600080805b60005463ffffffff62010000909104811690821610156117a757600185166117635783925060028163ffffffff168154811061173157fe5b906000526020600020015491508360018263ffffffff168154811061175257fe5b600091825260209091200155611787565b60018163ffffffff168154811061177657fe5b906000526020600020015492508391505b6117918383610a37565b9350600263ffffffff86160494506001016116f9565b5060035460649063ffffffff908116600101166003805463ffffffff19169290910663ffffffff9081169290921790819055849160049116606481106117e957fe5b01555050600354600160201b900463ffffffff1660001901949350505050565b60685434146118495760405162461bcd60e51b81526004018080602001828103825260388152602001806119e66038913960400191505060405180910390fd5b565b600081611870612710611864838263ffffffff6118f916565b9063ffffffff61196016565b146118ae576040805162461bcd60e51b81526020600482015260096024820152681d1bdbc81cdb585b1b60ba1b604482015290519081900360640190fd5b6069546118bd57506000610dbb565b610c146127106118d86069548561196090919063ffffffff16565b9063ffffffff6118f916565b606d546001600160a01b031690565b3b151590565b600080821161194f576040805162461bcd60e51b815260206004820152601a60248201527f536166654d6174683a206469766973696f6e206279207a65726f000000000000604482015290519081900360640190fd5b81838161195857fe5b049392505050565b60008261196f57506000610c14565b8282028284828161197c57fe5b04146119b95760405162461bcd60e51b8152600401808060200182810382526021815260200180611b3a6021913960400191505060405180910390fd5b939250505056fe64656e6f6d696e6174696f6e2073686f756c642062652067726561746572207468616e2030506c656173652073656e6420606d697844656e6f6d696e6174696f6e6020424e4220616c6f6e672077697468207472616e73616374696f6e4d65726b6c6520747265652069732066756c6c2e204e6f206d6f7265206c656166732063616e206265206164646564526566756e642076616c756520697320737570706f73656420746f206265207a65726f20666f7220424e4220696e7374616e63657061796d656e7420746f2070726f766964657220646964206e6f7420676f20746872755f72696768742073686f756c6420626520696e7369646520746865206669656c645f747265654c6576656c732073686f756c642062652067726561746572207468616e207a65726f496e697469616c697a61626c653a20636f6e747261637420697320616c726561647920696e697469616c697a656430644e72e131a029b85045b68181585d2833e84879b9709143e1f593f0000001536166654d6174683a206d756c7469706c69636174696f6e206f766572666c6f775f747265654c6576656c732073686f756c64206265206c657373207468616e20333254686520636f6d6d69746d656e7420686173206265656e207375626d69747465644d6573736167652076616c756520697320737570706f73656420746f206265207a65726f20666f7220424e4220696e7374616e63657061796d656e7420746f205f726563697069656e7420646964206e6f7420676f20746872757061796d656e7420746f205f72656c6179657220646964206e6f7420676f20746872754f6e6c79206f70657261746f722063616e2063616c6c20746869732066756e6374696f6e2ea2646970667358221220a6816484cba17d21c708c5cbfee39a8ebfc5e6898b06554262d699f1160c06cc64736f6c63430006020033",
  "linkReferences": {
    "contracts/MerkleTreeWithHistory.sol": {
      "Hasher": [
        {
          "length": 20,
          "start": 2861
        },
        {
          "length": 20,
          "start": 2991
        }
      ]
    }
  },
  "deployedLinkReferences": {
    "contracts/MerkleTreeWithHistory.sol": {
      "Hasher": [
        {
          "length": 20,
          "start": 2829
        },
        {
          "length": 20,
          "start": 2959
        }
      ]
    }
  }
}